{
  "address": "0x81A1419049A6731ab52505Da86cf077d850b3fEe",
  "abi": [
    {
      "inputs": [
        {
          "internalType": "address",
          "name": "_factory",
          "type": "address"
        },
        {
          "internalType": "address",
          "name": "_router",
          "type": "address"
        }
      ],
      "stateMutability": "nonpayable",
      "type": "constructor"
    },
    {
      "inputs": [
        {
          "internalType": "address",
          "name": "sender",
          "type": "address"
        },
        {
          "internalType": "uint256",
          "name": "amount0",
          "type": "uint256"
        },
        {
          "internalType": "uint256",
          "name": "amount1",
          "type": "uint256"
        },
        {
          "internalType": "bytes",
          "name": "data",
          "type": "bytes"
        }
      ],
      "name": "joeCall",
      "outputs": [],
      "stateMutability": "nonpayable",
      "type": "function"
    },
    {
      "stateMutability": "payable",
      "type": "receive"
    }
  ],
  "transactionHash": "0x436da6851fa4ce2cb7a6f9b8a34433a0230939dd88a05a09aa48a195434124d4",
  "args": [
    "0x7eeccb3028870540EEc3D88C2259506f2d34fEE0",
    "0x2D99ABD9008Dc933ff5c0CD271B88309593aB921"
  ],
  "numDeployments": 1,
  "solcInputHash": "4eea1b8724df3cb26b713f85161ced92",
  "bytecode": "0x60c060405234801561001057600080fd5b506040516113183803806113188339818101604052604081101561003357600080fd5b8101908080519060200190929190805190602001909291905050508073ffffffffffffffffffffffffffffffffffffffff1660808173ffffffffffffffffffffffffffffffffffffffff1660601b815250508173ffffffffffffffffffffffffffffffffffffffff1660a08173ffffffffffffffffffffffffffffffffffffffff1660601b81525050505060805160601c60a05160601c6112276100f16000398061024452806105665250806103ac52806105a652506112276000f3fe6080604052600436106100225760003560e01c8063ee22dd871461002e57610029565b3661002957005b600080fd5b34801561003a57600080fd5b506100e66004803603608081101561005157600080fd5b81019080803573ffffffffffffffffffffffffffffffffffffffff1690602001909291908035906020019092919080359060200190929190803590602001906401000000008111156100a257600080fd5b8201836020820111156100b457600080fd5b803590602001918460018302840111640100000000831117156100d657600080fd5b90919293919293905050506100e8565b005b6060600267ffffffffffffffff8111801561010257600080fd5b506040519080825280602002602001820160405280156101315781602001602082028036833780820191505090505b5090506000803373ffffffffffffffffffffffffffffffffffffffff16630dfe16816040518163ffffffff1660e01b815260040160206040518083038186803b15801561017d57600080fd5b505afa158015610191573d6000803e3d6000fd5b505050506040513d60208110156101a757600080fd5b8101908080519060200190929190505050905060003373ffffffffffffffffffffffffffffffffffffffff1663d21220a76040518163ffffffff1660e01b815260040160206040518083038186803b15801561020257600080fd5b505afa158015610216573d6000803e3d6000fd5b505050506040513d602081101561022c57600080fd5b8101908080519060200190929190505050905061026a7f00000000000000000000000000000000000000000000000000000000000000008383610798565b73ffffffffffffffffffffffffffffffffffffffff163373ffffffffffffffffffffffffffffffffffffffff161461029e57fe5b60008814806102ad5750600087145b6102b357fe5b600088146102c157816102c3565b805b846000815181106102d057fe5b602002602001019073ffffffffffffffffffffffffffffffffffffffff16908173ffffffffffffffffffffffffffffffffffffffff168152505060008814610318578061031a565b815b8460018151811061032757fe5b602002602001019073ffffffffffffffffffffffffffffffffffffffff16908173ffffffffffffffffffffffffffffffffffffffff16815250506000881461036f5787610371565b865b9250505060008260008151811061038457fe5b602002602001015190508073ffffffffffffffffffffffffffffffffffffffff1663095ea7b37f0000000000000000000000000000000000000000000000000000000000000000846040518363ffffffff1660e01b8152600401808373ffffffffffffffffffffffffffffffffffffffff16815260200182815260200192505050602060405180830381600087803b15801561041f57600080fd5b505af1158015610433573d6000803e3d6000fd5b505050506040513d602081101561044957600080fd5b8101908080519060200190929190505050506060600267ffffffffffffffff8111801561047557600080fd5b506040519080825280602002602001820160405280156104a45781602001602082028036833780820191505090505b509050836001815181106104b457fe5b6020026020010151816000815181106104c957fe5b602002602001019073ffffffffffffffffffffffffffffffffffffffff16908173ffffffffffffffffffffffffffffffffffffffff16815250508360008151811061051057fe5b60200260200101518160018151811061052557fe5b602002602001019073ffffffffffffffffffffffffffffffffffffffff16908173ffffffffffffffffffffffffffffffffffffffff1681525050600061058c7f000000000000000000000000000000000000000000000000000000000000000085846108b1565b60008151811061059857fe5b6020026020010151905060007f000000000000000000000000000000000000000000000000000000000000000073ffffffffffffffffffffffffffffffffffffffff16638803dbee838789336201518042016040518663ffffffff1660e01b815260040180868152602001858152602001806020018473ffffffffffffffffffffffffffffffffffffffff168152602001838152602001828103825285818151815260200191508051906020019060200280838360005b8381101561066a57808201518184015260208101905061064f565b505050509050019650505050505050600060405180830381600087803b15801561069357600080fd5b505af11580156106a7573d6000803e3d6000fd5b505050506040513d6000823e3d601f19601f8201168201806040525060208110156106d157600080fd5b81019080805160405193929190846401000000008211156106f157600080fd5b8382019150602082018581111561070757600080fd5b825186602082028301116401000000008211171561072457600080fd5b8083526020830192505050908051906020019060200280838360005b8381101561075b578082015181840152602081019050610740565b5050505090500160405250505060008151811061077457fe5b6020026020010151905061078b848c838803610a31565b5050505050505050505050565b60008060006107a78585610c14565b91509150858282604051602001808373ffffffffffffffffffffffffffffffffffffffff1660601b81526014018273ffffffffffffffffffffffffffffffffffffffff1660601b8152601401925050506040516020818303038152906040528051906020012060405160200180807fff000000000000000000000000000000000000000000000000000000000000008152506001018373ffffffffffffffffffffffffffffffffffffffff1660601b8152601401828152602001807f0bbca9af0511ad1a1da383135cf3a8d2ac620e549ef9f6ae3a4c33c2fed0af91815250602001925050506040516020818303038152906040528051906020012060001c925050509392505050565b606060028251101561092b576040517f08c379a00000000000000000000000000000000000000000000000000000000081526004018080602001828103825260188152602001807f4a6f654c6962726172793a20494e56414c49445f50415448000000000000000081525060200191505060405180910390fd5b815167ffffffffffffffff8111801561094357600080fd5b506040519080825280602002602001820160405280156109725781602001602082028036833780820191505090505b509050828160018351038151811061098657fe5b6020026020010181815250506000600183510390505b6000811115610a29576000806109dc878660018603815181106109bb57fe5b60200260200101518786815181106109cf57fe5b6020026020010151610da8565b915091506109fe8484815181106109ef57fe5b60200260200101518383610ed1565b846001850381518110610a0d57fe5b602002602001018181525050505080806001900391505061099c565b509392505050565b600060608473ffffffffffffffffffffffffffffffffffffffff1663a9059cbb8585604051602401808373ffffffffffffffffffffffffffffffffffffffff168152602001828152602001925050506040516020818303038152906040529060e01b6020820180517bffffffffffffffffffffffffffffffffffffffffffffffffffffffff83818316178352505050506040518082805190602001908083835b60208310610af45780518252602082019150602081019050602083039250610ad1565b6001836020036101000a0380198251168184511680821785525050505050509050019150506000604051808303816000865af19150503d8060008114610b56576040519150601f19603f3d011682016040523d82523d6000602084013e610b5b565b606091505b5091509150818015610b9b5750600081511480610b9a5750808060200190516020811015610b8857600080fd5b81019080805190602001909291905050505b5b610c0d576040517f08c379a000000000000000000000000000000000000000000000000000000000815260040180806020018281038252601f8152602001807f5472616e7366657248656c7065723a205452414e534645525f4641494c45440081525060200191505060405180910390fd5b5050505050565b6000808273ffffffffffffffffffffffffffffffffffffffff168473ffffffffffffffffffffffffffffffffffffffff161415610cb9576040517f08c379a000000000000000000000000000000000000000000000000000000000815260040180806020018281038252601f8152602001807f4a6f654c6962726172793a204944454e544943414c5f4144445245535345530081525060200191505060405180910390fd5b8273ffffffffffffffffffffffffffffffffffffffff168473ffffffffffffffffffffffffffffffffffffffff1610610cf3578284610cf6565b83835b8092508193505050600073ffffffffffffffffffffffffffffffffffffffff168273ffffffffffffffffffffffffffffffffffffffff161415610da1576040517f08c379a00000000000000000000000000000000000000000000000000000000081526004018080602001828103825260188152602001807f4a6f654c6962726172793a205a45524f5f41444452455353000000000000000081525060200191505060405180910390fd5b9250929050565b6000806000610db78585610c14565b509050600080610dc8888888610798565b73ffffffffffffffffffffffffffffffffffffffff16630902f1ac6040518163ffffffff1660e01b815260040160606040518083038186803b158015610e0d57600080fd5b505afa158015610e21573d6000803e3d6000fd5b505050506040513d6060811015610e3757600080fd5b81019080805190602001909291908051906020019092919080519060200190929190505050506dffffffffffffffffffffffffffff1691506dffffffffffffffffffffffffffff1691508273ffffffffffffffffffffffffffffffffffffffff168773ffffffffffffffffffffffffffffffffffffffff1614610ebb578082610ebe565b81815b8095508196505050505050935093915050565b6000808411610f2b576040517f08c379a00000000000000000000000000000000000000000000000000000000081526004018080602001828103825260268152602001806111cc6026913960400191505060405180910390fd5b600083118015610f3b5750600082115b610f90576040517f08c379a00000000000000000000000000000000000000000000000000000000081526004018080602001828103825260228152602001806111aa6022913960400191505060405180910390fd5b6000610fb96103e8610fab878761100e90919063ffffffff16565b61100e90919063ffffffff16565b90506000610fe46103e5610fd688876110a390919063ffffffff16565b61100e90919063ffffffff16565b90506110036001828481610ff457fe5b0461112690919063ffffffff16565b925050509392505050565b60008082148061102b575082828385029250828161102857fe5b04145b61109d576040517f08c379a00000000000000000000000000000000000000000000000000000000081526004018080602001828103825260148152602001807f64732d6d6174682d6d756c2d6f766572666c6f7700000000000000000000000081525060200191505060405180910390fd5b92915050565b6000828284039150811115611120576040517f08c379a00000000000000000000000000000000000000000000000000000000081526004018080602001828103825260158152602001807f64732d6d6174682d7375622d756e646572666c6f77000000000000000000000081525060200191505060405180910390fd5b92915050565b60008282840191508110156111a3576040517f08c379a00000000000000000000000000000000000000000000000000000000081526004018080602001828103825260148152602001807f64732d6d6174682d6164642d6f766572666c6f7700000000000000000000000081525060200191505060405180910390fd5b9291505056fe4a6f654c6962726172793a20494e53554646494349454e545f4c49515549444954594a6f654c6962726172793a20494e53554646494349454e545f4f55545055545f414d4f554e54a264697066735822122090c646654c72be22a385504c12d6b3700ea7de3bcaef13401f7a57ab05c337a164736f6c634300060c0033",
  "devdoc": {
    "kind": "dev",
    "methods": {},
    "version": 1
  },
  "userdoc": {
    "kind": "user",
    "methods": {},
    "version": 1
  },
  "storageLayout": {
    "storage": [],
    "types": null
  }
}